:020000040800F2
:1000000000500020591500089514000897140008A6
:10001000991400089B1400089D14000800000000BB
:100020000000000000000000000000009F14000815
:10003000A114000800000000A3140008A514000883
:10004000A1150008A1150008A1150008A1150008B8
:10005000A1150008A1150008A1150008A1150008A8
:10006000A1150008A1150008A1150008A115000898
:10007000A1150008A1150008A1150008A115000888
:10008000A1150008A1150008A1150008A115000878
:10009000A1150008A1150008A1150008A115000868
:1000A000A1150008A1150008A1150008A115000858
:1000B000A1150008A1150008A1150008A115000848
:1000C000A1150008A1150008A1150008A115000838
:1000D000A1150008A1150008A1150008A115000828
:1000E000A1150008A1150008A115000800000000D6
:1000F0000000000000000000000000000000000000
:0C01000000000000000000005FF808F1A3
:1001100010B5054C237833B9044B13B10448AFF341
:1001200000800123237010BDE009002000000000C2
:10013000FC71000808B5034B1BB103490348AFF33A
:10014000008008BD00000000E4090020FC710008E8
:10015000034613F8012B002AFBD1181A0138704707
:1001600081F0004102E000BF83F0004330B54FEA68
:1001700041044FEA430594EA050F08BF90EA020FD5
:100180001FBF54EA000C55EA020C7FEA645C7FEA68
:10019000655C00F0E2804FEA5454D4EB5555B8BF8B
:1001A0006D420CDD2C4480EA020281EA030382EAFC
:1001B000000083EA010180EA020281EA0303362D8E
:1001C00088BF30BD11F0004F4FEA01314FF4801C61
:1001D0004CEA113102D0404261EB410113F0004F73
:1001E0004FEA03334CEA133302D0524263EB43032A
:1001F00094EA050F00F0A780A4F10104D5F1200EC8
:100200000DDB02FA0EFC22FA05F2801841F1000122
:1002100003FA0EF2801843FA05F359410EE0A5F1F6
:1002200020050EF1200E012A03FA0EFC28BF4CF027
:10023000020C43FA05F3C01851EBE37101F00045DD
:1002400007D54FF0000EDCF1000C7EEB00006EEBEA
:100250000101B1F5801F1BD3B1F5001F0CD3490874
:100260005FEA30004FEA3C0C04F101044FEA4452CB
:1002700012F5800F80F09A80BCF1004F08BF5FEA52
:10028000500C50F1000041EB045141EA050130BD32
:100290005FEA4C0C404141EB0101013C28BFB1F544
:1002A000801FE9D291F0000F04BF01460020B1FA8F
:1002B00081F308BF2033A3F10B03B3F120020CDA62
:1002C0000C3208DD02F1140CC2F10C0201FA0CF040
:1002D00021FA02F10CE002F11402D8BFC2F1200CA5
:1002E00001FA02F120FA0CFCDCBF41EA0C0190405B
:1002F000E41AA2BF01EB0451294330BD6FEA0404A4
:100300001F3C1CDA0C340EDC04F11404C4F120028E
:1003100020FA04F001FA02F340EA030021FA04F3A0
:1003200045EA030130BDC4F10C04C4F1200220FAF7
:1003300002F001FA04F340EA0300294630BD21FA35
:1003400004F0294630BD94F0000F83F4801306BFFB
:1003500081F480110134013D4EE77FEA645C18BFEF
:100360007FEA655C29D094EA050F08BF90EA020F86
:1003700005D054EA000C04BF1946104630BD91EA7E
:10038000030F1EBF0021002030BD5FEA545C05D181
:100390004000494128BF41F0004130BD14F58004C0
:1003A0003CBF01F5801130BD01F0004545F0FE4134
:1003B00041F470014FF0000030BD7FEA645C1ABF69
:1003C000194610467FEA655C1CBF0B46024650EAA0
:1003D000013406BF52EA033591EA030F41F40021CC
:1003E00030BD00BF90F0000F04BF0021704730B552
:1003F0004FF4806404F132044FF000054FF0000127
:1004000050E700BF90F0000F04BF0021704730B5E7
:100410004FF4806404F1320410F0004548BF4042BC
:100420004FF000013EE700BF42004FEAE2014FEA11
:1004300031014FEA02701FBF12F07F4393F07F4FEC
:1004400081F06051704732F07F4208BF704793F0EF
:100450007F4F04BF41F40021704730B54FF4607402
:1004600001F0004521F000411CE700BF50EA010205
:1004700008BF704730B54FF000050AE050EA0102AE
:1004800008BF704730B511F0004502D5404261EB1E
:1004900041014FF4806404F132045FEA915C3FF45F
:1004A000D8AE4FF003025FEADC0C18BF03325FEAFC
:1004B000DC0C18BF033202EBDC02C2F1200300FAAD
:1004C00003FC20FA02F001FA03FE40EA0E0021FAD2
:1004D00002F11444BDE600BF70B54FF0FF0C4CF4C0
:1004E000E06C1CEA11541DBF1CEA135594EA0C0F72
:1004F00095EA0C0F00F0DEF82C4481EA030621EAAD
:100500004C5123EA4C5350EA013518BF52EA0335E7
:1005100041F4801143F4801338D0A0FB02CE4FF099
:100520000005E1FB02E506F00042E0FB03E54FF0C9
:100530000006E1FB03569CF0000F18BF4EF0010EC1
:10054000A4F1FF04B6F5007F64F5407404D25FEABD
:100550004E0E6D4146EB060642EAC62141EA555170
:100560004FEAC52040EA5E504FEACE2EB4F1FD0CB2
:1005700088BFBCF5E06F1ED8BEF1004F08BF5FEA30
:10058000500E50F1000041EB045170BD06F00046E2
:1005900046EA010140EA020081EA0301B4EB5C048F
:1005A000C2BFD4EB0C0541EA045170BD41F4801187
:1005B0004FF0000E013C00F3AB8014F1360FDEBFAC
:1005C000002001F0004170BDC4F10004203C35DA88
:1005D0000C341BDC04F11404C4F1200500FA05F30B
:1005E00020FA04F001FA05F240EA020001F00042AC
:1005F00021F0004110EBD37021FA04F642EB060122
:100600005EEA430E08BF20EAD37070BDC4F10C044B
:10061000C4F1200500FA04F320FA05F001FA04F20F
:1006200040EA020001F0004110EBD37041F10001FB
:100630005EEA430E08BF20EAD37070BDC4F1200506
:1006400000FA05F24EEA020E20FA04F301FA05F26E
:1006500043EA020321FA04F001F0004121FA04F216
:1006600020EA020000EBD3705EEA430E08BF20EAE6
:10067000D37070BD94F0000F0FD101F00046400020
:1006800041EB010111F4801F08BF013CF7D041EAA2
:10069000060195F0000F18BF704703F000465200A6
:1006A00043EB030313F4801F08BF013DF7D043EA77
:1006B0000603704794EA0C0F0CEA135518BF95EA2D
:1006C0000C0F0CD050EA410618BF52EA4306D1D1B4
:1006D00081EA030101F000414FF0000070BD50EAD3
:1006E000410606BF1046194652EA430619D094EA5D
:1006F0000C0F02D150EA013613D195EA0C0F05D147
:1007000052EA03361CBF104619460AD181EA03019A
:1007100001F0004141F0FE4141F470014FF0000052
:1007200070BD41F0FE4141F4780170BD70B54FF0ED
:10073000FF0C4CF4E06C1CEA11541DBF1CEA13556D
:1007400094EA0C0F95EA0C0F00F0A7F8A4EB05044F
:1007500081EA030E52EA03354FEA013100F0888046
:100760004FEA03334FF0805545EA131343EA12630F
:100770004FEA022245EA111545EA10654FEA0026C4
:100780000EF000419D4208BF964244F1FD0404F57D
:10079000407402D25B084FEA3202B61A65EB0305D9
:1007A0005B084FEA32024FF480104FF4002CB6EB96
:1007B000020E75EB030E22BFB61A754640EA0C0016
:1007C0005B084FEA3202B6EB020E75EB030E22BF56
:1007D000B61A754640EA5C005B084FEA3202B6EB97
:1007E000020E75EB030E22BFB61A754640EA9C0056
:1007F0005B084FEA3202B6EB020E75EB030E22BF26
:10080000B61A754640EADC0055EA060E18D04FEAE3
:10081000051545EA16754FEA06164FEAC30343EA83
:1008200052734FEAC2025FEA1C1CC0D111F4801F50
:100830000BD141EA00014FF000004FF0004CB6E749
:1008400011F4801F04BF01430020B4F1FD0C88BFE8
:10085000BCF5E06F3FF6AFAEB5EB030C04BFB6EBF3
:10086000020C5FEA500C50F1000041EB045170BDE6
:100870000EF0004E4EEA113114EB5C04C2BFD4EB13
:100880000C0541EA045170BD41F480114FF0000E97
:10089000013C90E645EA060E8DE60CEA135594EA13
:1008A0000C0F08BF95EA0C0F3FF43BAF94EA0C0F16
:1008B0000AD150EA01347FF434AF95EA0C0F7FF48B
:1008C00025AF104619462CE795EA0C0F06D152EADF
:1008D00003353FF4FDAE1046194622E750EA4106C3
:1008E00018BF52EA43067FF4C5AE50EA41047FF4D4
:1008F0000DAF52EA43057FF4EBAE12E74FF0FF3C39
:1009000006E000BF4FF0010C02E000BF4FF0010C09
:100910004DF804CD4FEA410C7FEA6C5C4FEA430C82
:1009200018BF7FEA6C5C1BD001B050EA410C0CBFD1
:1009300052EA430C91EA030F02BF90EA020F002033
:10094000704710F1000F91EA030F58BF994208BF9A
:1009500090422CBFD8176FEAE37040F00100704757
:100960004FEA410C7FEA6C5C02D150EA013C07D1AE
:100970004FEA430C7FEA6C5CD6D152EA033CD3D0F9
:100980005DF8040B704700BF8446104662468C46F3
:100990001946634600E000BF01B5FFF7B7FF002826
:1009A00048BF10F1000F01BD4DF808EDFFF7F4FF4F
:1009B0000CBF012000205DF808FB00BF4DF808EDDA
:1009C000FFF7EAFF34BF012000205DF808FB00BFFD
:1009D0004DF808EDFFF7E0FF94BF012000205DF81F
:1009E00008FB00BF4DF808EDFFF7CEFF94BF0120D4
:1009F00000205DF808FB00BF4DF808EDFFF7C4FFCD
:100A000034BF012000205DF808FB00BF4FEA410C15
:100A10007FEA6C5C02D150EA013C0AD14FEA430CF8
:100A20007FEA6C5C02D152EA033C02D14FF0000035
:100A300070474FF0010070474FEA410212F5001273
:100A400015D211D56FF47873B3EB625212D94FEA15
:100A5000C12343F0004343EA505311F0004F23FAFF
:100A600002F018BF404270474FF00000704750EA54
:100A7000013005D111F0004008BF6FF00040704711
:100A80004FF00000704700BF4A0011D212F500126B
:100A900011D20DD56FF47873B3EB62520ED44FEAD6
:100AA000C12343F0004343EA505323FA02F0704756
:100AB0004FF00000704750EA013002D14FF0FF3094
:100AC00070474FF0000070474FEA4102B2F1E04337
:100AD00024BFB3F5001CDCF1FE5C0DD901F0004C25
:100AE0004FEAC0024CEA5070B2F1004F40EB830075
:100AF00008BF20F00100704711F0804F21D113F1A1
:100B00003872BCBF01F00040704741F480114FEAD9
:100B10005252C2F11802C2F1200C10FA0CF320FA62
:100B200002F018BF40F001004FEAC1234FEAD3237F
:100B300003FA0CFC40EA0C0023FA02F34FEA4303E9
:100B4000CCE77FEA625307D150EA01331EBF4FF072
:100B5000FE4040F44000704701F0004040F0FE408D
:100B600040F40000704700BF4FF0FF3C06E000BFBC
:100B70004FF0010C02E000BF4FF0010C4DF804CD26
:100B80004FEA40024FEA41037FEA226C18BF7FEA36
:100B9000236C11D001B052EA530C18BF90EA010F38
:100BA00058BFB2EB030088BFC81738BF6FEAE170C7
:100BB00018BF40F0010070477FEA226C02D15FEA63
:100BC000402C05D17FEA236CE4D15FEA412CE1D0CF
:100BD0005DF8040B704700BF844608466146FFE796
:100BE0000FB5FFF7C9FF002848BF10F1000F0FBD78
:100BF0004DF808EDFFF7F4FF0CBF012000205DF871
:100C000008FB00BF4DF808EDFFF7EAFF34BF0120F5
:100C100000205DF808FB00BF4DF808EDFFF7E0FF8E
:100C200094BF012000205DF808FB00BF4DF808EDDF
:100C3000FFF7D2FF94BF012000205DF808FB00BF42
:100C40004DF808EDFFF7C8FF34BF012000205DF824
:100C500008FB00BF38B50C46054621462846002251
:100C60000023FFF7ABFE28B928462146BDE83840EF
:100C700000F00AB8284604F1004100F005F84042AF
:100C800061EB410138BD00BFD0B500220B4B0646D9
:100C90000F46FFF721FCFFF7F7FE0446FFF7A2FB24
:100CA0000022074BFFF718FC02460B463046394638
:100CB000FFF75AFAFFF7E8FE2146D0BD0000F03DED
:100CC0000000F0417FB54FF47A7C02230A46017997
:100CD000CDE9013C05AB009301230068994001F088
:100CE000E1F99DF814009DF8153043EA002007B0A3
:100CF0005DF804FB10B552BA86B0ADF8142002239B
:100D00004FF47A720479CDE9013205AB00930123E7
:100D10000A46006804FA03F101F034F906B010BD88
:100D200008B50221FFF7CEFF43084FF6FC701840CC
:100D300008BD042108B5FFF7C5FF00B208BD0000DB
:100D400008B5FFF7F6FF034BB3F9003090FBF3F063
:100D500000B208BD0C0E002008B54FF4004200217F
:100D6000FFF7C8FFBDE80840012000F063BC0A4659
:100D70000521FFF7BFBF0A460021FFF7BBBF0000F8
:100D800040F266610122094B10B51980084B0446F8
:100D90001A801422074B1A80FFF7E9FF2046BDE8AE
:100DA000104043F6FF71FFF7E6BF00BF0E0E0020B4
:100DB0000C0E0020100E002038B505460024084611
:100DC00011460B4B28601C800A4B2A711C800322A1
:100DD0000223490001F0A4FA38B92846FFF7BCFF06
:100DE0002846FFF7CDFF012038BD2046FCE700BFB5
:100DF0000C0E0020100E00204FF48063034A013BCC
:100E00009BB202F8010B002BF9D17047000A0020B9
:100E10001FB500238DF80C300A238DF80D0005480E
:100E200000937821022303AA006800F0D3FF05B0E5
:100E30005DF804FBFC0900202E4B10B50A22186057
:100E40007821642301F06CFA044600284FD1AE20CB
:100E5000FFF7DEFFD520FFF7DBFF8020FFF7D8FF8D
:100E6000A820FFF7D5FF3F20FFF7D2FFD320FFF7E1
:100E7000CFFF2046FFF7CCFF4020FFF7C9FF8D20B2
:100E8000FFF7C6FF1420FFF7C3FF2020FFF7C0FFC6
:100E90002046FFF7BDFFA120FFF7BAFFC820FFF7EC
:100EA000B7FFDA20FFF7B4FF1220FFF7B1FF812070
:100EB000FFF7AEFFFF20FFF7ABFFD920FFF7A8FF3A
:100EC000F120FFF7A5FFDB20FFF7A2FF4020FFF78F
:100ED0009FFFA420FFF79CFFA620FFF799FFAF20FC
:100EE000FFF796FF2046FFF787FF012010BD002087
:100EF000FCE700BFFC09002010B1A720FFF788BF66
:100F0000A620FBE7030630B50FD43F290DD80124F6
:100F1000CB08084D01F0070100EBC31004FA01F102
:100F20002B5649B212B10B432B5430BD23EA0103B7
:100F3000FAE700BF000A00202DE9F8430646002525
:100F40004FF0800800245FFA85F906EB0517C4F31B
:100F5000C403FA5C04F0070348FA03F31A4018BF0D
:100F60000122E0B249460134FFF7CCFF802CEED1DC
:100F70000135402DE6D1BDE8F883000070B5044688
:100F8000FFF7E6F80A4B1968B3F90A50B3F908609D
:100F9000C3B2002023449C4200D170BD14F8012B41
:100FA000921B05FB021212791044C0B2F3E700BF96
:100FB000140E00202DE9F74F0D4698464FF000091A
:100FC000214E0192B6F90870C01BB6F90A7047436A
:100FD000381D376807443B785FFA89FB5B4530D89A
:100FE00003B0BDE8F08FB6F90A40B6F90400013C41
:100FF0000BFB04F494FBF0F43C44019B04EBD2049F
:101000006078991802F0070240FA02F2D307C9B2D9
:1010100013D5B8F1000218BF01222846FFF772FF6E
:101020000AF1010AB6F906105FFA8AF28A42DADB9F
:10103000013509F10109EDB2CDE7B8FA88F252099C
:10104000EBE74FF0000AEDE7140E00202DE9F04722
:101050000C46054690461F46FFF77AF8FE2C46B22E
:1010600005D12846FFF78AFFC0F17F04E4B2FF2CC8
:1010700008D12846FFF782FFC0F17F0404EBD47447
:10108000C4F34704B8F1FF0F08D1144BB3F906209D
:10109000C2F1400202EBD272C2F34708A946DFF860
:1010A0003CA0A9EB0503DBB2B34201DBBDE8F0874E
:1010B00021463B46424699F80000FFF77BFFBAF90C
:1010C000082019F8013BBAF90A109B1ADAF8002037
:1010D00001FB032319790C44E4B2E2E7140E00206B
:1010E0007FB515461E460C46FFF79EF902460B4695
:1010F0006846054902F0F0FA33462A46214668461A
:10110000FFF7A4FF04B070BD187200087FB5B024CB
:101110000E4D0F4E2046FFF77BFE0220FFF778FEB4
:101120001020FFF775FE802364220134CDE90132DF
:1011300000950123402278213068E4B200F022FFBC
:10114000B82C05F18005E5D104B070BD000A00207F
:10115000FC090020064B186002789A804278DA80F9
:1011600082781A81C2785A8100221A73704700BFB0
:10117000140E0020102210B588B00DEB02000021E3
:1011800001F02CFC1C4B1D4C9A69204642F01002C9
:101190009A619A694FF4005102F010020092009A8D
:1011A0009A6942F020029A619A6902F02002019243
:1011B000019A9A6942F008029A619A6902F008025B
:1011C0000292029A9A6942F004029A619B69002293
:1011D00003F004030393039B00F074FB4FF40052ED
:1011E0000123CDE904230223204604A9CDE90633D7
:1011F00000F08CFA08B010BD001002400010014051
:1012000008B50B480B4A0C4BC0E9002300234FF4F0
:101210008042C0E90233C0E90423C0E90633036217
:1012200000F030FD18B1BDE8084000F00FB908BD6E
:10123000240E002000540040801A0600102210B531
:10124000044688B00DEB0200002101F0C7FB2368C3
:10125000214A93421ED1214CC021A369204843F06A
:101260000803A361A36903F008030093009B122302
:10127000CDE90413032304A9079300F047FAE369B7
:1012800043F40013E361E36903F400130193019B4A
:1012900008B010BD134A9342FAD1104C4FF440628B
:1012A000A3690F4843F00803A361A36904A903F0ED
:1012B00008030293029B1223CDE90423032307931F
:1012C00000F024FAE36943F48003E361E36903F483
:1012D00080030393039BDBE70054004000100240AF
:1012E000000C01400058004010B590B010220021C1
:1012F00009A801F073FB1422002101A801F06EFB84
:1013000002244FF4803301220021CDE90623CDE9E8
:101310000D434FF4C01306A808910A920F9301F0F1
:10132000B1F808B172B6FEE70F23CDE901344FF4EE
:1013300080630390CDE90430214601A801F078FADA
:1013400008B172B6FEE710B010BD0000000000004A
:1013500080B535A7D7E9006700F048F9FFF7C4FF6B
:10136000FFF708FFFFF74CFF402231493148FFF7F4
:1013700023FD2F48FFF760FD0120FFF7BDFD2E483C
:10138000FFF7DAFDFFF7C2FE4FF4FA6000F052F902
:101390000020FFF7B1FD2948FFF7CEFDFFF7B6FEAD
:1013A0002748FFF7D7FEDFF88C804046FFF7B8FCF0
:1013B000FFF728F832463B46FFF78EF8FFF784FB2D
:1013C000204D01230522082128601F48FFF73EFE1B
:1013D0000123052208212868FFF782FE412000F042
:1013E00029F90123252208211748FFF72FFE40463F
:1013F000FFF7A6FCFFF706F832463B46FFF76CF80E
:10140000FFF762FB00210446FFF7FCFB48B96C6064
:101410000123252208216868FFF762FEFFF776FEA8
:10142000C3E704F10044F2E7FCA9F1D24D62503F5A
:10143000240E0020D40E0020000400200000002014
:101440001E720008CC0E0020B276000872B6FEE7CD
:101450000E4B82B09A6942F001029A619A6902F0D9
:1014600001020092009ADA6942F08052DA61DB6987
:10147000074A03F080530193019B536823F0E06314
:1014800043F00073536002B0704700BF0010024089
:1014900000000140FEE7FEE7FEE7FEE7FEE77047DB
:1014A0007047704700F0B4B80120704708B501F0EC
:1014B0006BFA162303604FF0FF3008BD08B501F04A
:1014C00063FA16230360FEE770B50E461446002546
:1014D000A54201DB204670BDAFF300807055013599
:1014E000F6E770B50E4614460025A54201DB2046FE
:1014F00070BD705DAFF300800135F6E74FF0FF304F
:1015000070474FF4005300204B6070470120704734
:10151000002070470B4B0246196810B509B90A49FB
:101520001960186809490A4C0244091B8A4206D905
:1015300001F02AFA0C2303604FF0FF3010BD1A604F
:10154000FCE700BF000E0020F00E0020005000203D
:101550000004000070470000002103E00B4B5B58C3
:10156000435004310A480B4B42189A42F6D30A4AB8
:1015700002E0002342F8043B084B9A42F9D3FFF7FC
:10158000E9FF01F007FAFFF7E3FE7047A47B0008CC
:1015900000000020E0090020E0090020F00E0020FB
:1015A000FEE7000038B50E4B054618784FF47A7305
:1015B000B3FBF0F30B4A1068B0FBF3F000F090F8C7
:1015C000044658B90F2D09D8024629464FF0FF307E
:1015D00000F054F82046044B1D6038BD0120FCE7A4
:1015E000040800200008002008080020074A08B569
:1015F0001368032043F01003136000F02DF800205F
:10160000FFF7D0FFFFF724FF002008BD00200240B5
:10161000034A044B11681B780B441360704700BFEA
:10162000DC0E002004080020014B1868704700BF42
:10163000DC0E002038B50446FFF7F6FF0546631CB4
:101640001EBF044B1B78E418FFF7EEFF431BA342B9
:10165000FAD338BD0408002007490302CA6803F41E
:10166000E06322F4E0621204120C134343F0BF6300
:1016700043F40033CB60704700ED00E0164B30B50B
:10168000DC68C4F30224C4F10703251D042B28BF22
:101690000423062D4FF0FF3598BF002405FA03F30D
:1016A00088BF033C21EA0303A34005FA04F422EABD
:1016B0000402002843EA0203ACBF00F16040074A7D
:1016C0004FEA0313DBB2ABBF00F5614000F00F003F
:1016D00080F80033135430BD00ED00E014ED00E05D
:1016E0000138B0F1807F0AD2F021064B064A5860DB
:1016F00082F823100020072298601A6070470120AA
:10170000704700BF10E000E000ED00E02DE9F74F6A
:1017100000221646644BDFF8A0C1DFF8A0E10D6897
:1017200035FA06F402D103B0BDE8F08F4FF001089E
:1017300008FA06F805EA080438EA05057CD14D6880
:10174000032D07D8013D022D00F28880DFE805F067
:10175000969BA100122D00F099806FD8112D00F0FA
:101760008F80FF2C98BF82464FF00F0988BF00F191
:10177000040A4FEA8605DAF8008088BF203D09FA9E
:1017800005FB28EA0B0802FA05F548EA0505CAF840
:101790000050D1F804A01AF0805F4DD0434F26F0DE
:1017A0000308BD6908F1804845F00105BD61BD69C8
:1017B00008F5803805F00105019506F0030B019D41
:1017C0004FEA8B0BD8F8085009FA0BF925EA0909FA
:1017D000374DA84261D005F58065A8425FD005F578
:1017E0008065A8425DD005F58065A8420CBF032541
:1017F000042505FA0BF545EA0905C8F808501D68E7
:101800001AF4803F14BF2543A5431D605D681AF498
:10181000003F14BF2543A5435D609D681AF4801FF7
:1018200014BF2543A5439D60DD681AF4001F14BF53
:101830002C4325EA0404DC60013670E71D4FBD42ED
:101840000CD017D8DFF878904D4507D009F57029EE
:101850004D4503D0A9F580194D4582D18A68D2B192
:10186000012A08BFC0F810804FF0080218BFC0F866
:10187000148076E76545F1D07545EEE7CA6870E7F4
:10188000CA6804326DE7CA6808326AE7CA680C326F
:1018900067E7002265E7042263E70025A9E7012541
:1018A000A7E70225A5E700BF0004014000100240A1
:1018B000000801400000221000003110000032102A
:1018C000000012100AB1016170470904FBE70168CA
:1018D00000224B6913F4806310D06FF480634B6176
:1018E0002023026380F83D3080F83E20036C80F8AE
:1018F0003C2043F0040303640120704718467047FE
:101900002DE9F04104460F46164698462568686959
:1019100027EA000080B2B8B16B695A0516D52B686A
:10192000202243F400732B606FF480636B6100230B
:10193000236384F83D2084F83E30226C42F0040298
:101940000120226484F83C30BDE8F081731CDED0B5
:10195000FFF76AFEA0EB0800B04201D8002ED5D1F7
:1019600000232022236384F83D2084F83E30226C3B
:1019700042F02002E4E770B504460D46164623689F
:101980005B695B0701D5002070BD2046FFF79FFF14
:10199000A8B96A1CF3D0FFF747FE801BA84201D804
:1019A000002DECD100232022236384F83D2084F80D
:1019B0003E30226C84F83C3042F020022264012048
:1019C000E2E770B504460D46164621684B6913F0F0
:1019D000400301D0002010E04A69D2060ED56FF016
:1019E00010024A612022236384F83D2084F83E30AF
:1019F000226C0120226484F83C3070BDFFF714FE95
:101A0000801BA84201D8002DDFD1002320222363B0
:101A100084F83D2084F83E30226C42F02002E8E752
:101A20002DE9F84606460F4691461D464FEA114AF3
:101A30003368BAF1010F0CBF5C699C6927EA0404A2
:101A4000A4B2B4FA84F46409A14501D0002017E0DF
:101A50006A1CEED0FFF7E8FD089BC01AA84201D827
:101A6000002DE5D1002320220120336386F83D209C
:101A700086F83E30326C86F83C3042F02002326408
:101A8000BDE8F88670B504460D46164623685B69C6
:101A90001B0601D5002070BD2046FFF718FFA8B92E
:101AA0006A1CF3D0FFF7C0FD801BA84201D8002DAF
:101AB000ECD100232022236384F83D2084F83E30BB
:101AC000226C84F83C3042F0200222640120E2E7DC
:101AD0002DE9F043154602689946136885B043F432
:101AE00080731360DDE90C780E463B4600224FF010
:101AF0000111CDF800800446FFF792FF236838B14A
:101B00001B68DB0502D54FF40073236403200AE051
:101B100006F0FE061E613A46434620461749FFF787
:101B2000EFFE18B1012005B0BDE8F08323680390F3
:101B30005A69394603929B69424603932046039BA8
:101B4000FFF7A0FF40B1236C042B01BF226813688C
:101B500043F400731360E5E7B9F1010F236802D184
:101B6000EDB21D61DFE72A0A1A6139464246204676
:101B7000FFF788FF0028E6D12368F1E702000100A3
:101B80002DE9FF479A46DDE90C78036815461A6887
:101B90000E4642F480621A601A684FF0011142F456
:101BA00080721A603B460022CDF800800446FFF7A1
:101BB00037FF236848B11B68DB0502D54FF400737B
:101BC0002364032004B0BDE8F0875FFA86F906F0CD
:101BD000FE061E613A46434620462949FFF790FE1D
:101BE00008B10120EEE7236803905A693946039251
:101BF0009B69424603932046039BFFF743FF40B196
:101C0000236C042B01BF2268136843F40073136034
:101C1000E7E7BAF1010F23681AD1EDB2424639461F
:101C200020461D61FFF72EFF02460028E8D12168FB
:101C300020460B6843F480730B603B464FF0011164
:101C4000CDF80080FFF7ECFE226860B11368B3E7BF
:101C50002A0A1A61394642462046FFF713FF002838
:101C6000CED12368D9E749F00103136120464346EA
:101C70003A460349FFF744FE003818BF0120A1E7A8
:101C80000200010070B5044608B9012070BD90F84B
:101C90003D3003F0FF021BB980F83C20FFF7CEFA7D
:101CA000242384F83D3023681A6822F001021A6068
:101CB0001A6842F400421A601A6822F400421A605C
:101CC00000F052FE3F4A6368934294BF3E4A3F4A47
:101CD00090428CBF00220122002AD6D13C4E2268BD
:101CE000B0FBF6F65168013821F03F0131435160F5
:101CF0003449156A8B4281BF4FF4967171434FF49A
:101D00007A76B1FBF6F125F03F0594BF711C0131E5
:101D100029431162D1692B4D21F44F41AB4221F08F
:101D2000FF0132D85B00B0FBF3F0431C40F6FC70BF
:101D3000034242D0C3F30B030B43D3611168D4E9D0
:101D4000073021F0C00103430B4313609168D4E9CD
:101D5000030321F40341034321F0FF010B4393608C
:101D6000D168D4E9053021F0FF0103430B43D36070
:101D70001368002043F0010313602023206484F8DB
:101D80003D30206384F83E0080E7A56855B903EB39
:101D90004303B0FBF3F30133C3F30B037BB143F411
:101DA0000043C9E719256B43B0FBF3F30133C3F3D9
:101DB0000B0323B143F44043BEE70423BCE70123F4
:101DC000BAE700BFA08601007F841E00FF083D0027
:101DD00040420F002DE9F043044685B098460D4679
:101DE00091460C9FFFF720FC94F83D300646202BCF
:101DF00004D00225284605B0BDE8F08300901923E1
:101E0000012220465B49FFF70BFE0028F1D194F830
:101E10003C30012BEDD00123216884F83C300B6865
:101E2000DA075EBF0B6843F001030B600B6823F415
:101E300000630B60212384F83D30102384F83E308A
:101E400000232364A4F82A80638DC4F8249023859A
:101E5000494BE362E36A082B04D0012B02D013F54F
:101E6000803F04D10B6843F480730B6002E0236B66
:101E7000122BF7D000223B464FF00111204600966E
:101E8000FFF7CEFD226838B11368DB0544BF4FF47D
:101E9000007323640125ADE72369B3F5804F21D199
:101EA00005F0FE05156133463A4620463349FFF7F3
:101EB00027FD05460028EDD1236803905A69039257
:101EC0009B690393039B238DF3B921680A6842F44D
:101ED00000720A60202284F83C3084F83D2084F8A7
:101EE0003E3087E7EB1103F0060343F0F003136184
:101EF000204633463A462249FFF702FD0028C9D161
:101F00002368EDB21D61CEE7324639462046FFF721
:101F1000B9FD40B1236C042BBCD12268136843F493
:101F200000731360B6E7636A20681A4612F8011B53
:101F300001616262628D013A92B26285228DD0F8AF
:101F400014C0511E89B21CF0040F21850AD049B17A
:101F50005978023301616362638D023A013B9BB29F
:101F600063852285324639462046FFF704FD002866
:101F7000A9D0CFE7020010000000FFFF020001001F
:101F8000080001002DE9F743044699460F469046A4
:101F90000C9EFFF749FB94F83D300546202B03D0FB
:101FA000022003B0BDE8F0830090192301222046EF
:101FB0003A49FFF735FD0028F2D194F83C30012B67
:101FC000EED00123206884F83C3003684246D907EC
:101FD00058BF036839465CBF43F0010303600368E0
:101FE00023F400630360212384F83D30402384F808
:101FF0003E30002323640A9B20466362BDF82C30E8
:10200000CDE900656385638D2385254BE3624B46EF
:10201000FFF75EFD00282AD00120C2E7FFF732FD5E
:1020200040B1236C042B01BF2268136843F4007392
:102030001360F1E7636A27681A4612F8011B3961D9
:102040006262628D218D013A92B262857A69481E80
:1020500080B2520720850AD548B15A7802333A61D6
:102060006362638D0239013B9BB221856385238DB9
:102070002A4631462046002BD0D1FFF77CFC0028B1
:10208000CFD12268136843F400731360202384F8CF
:102090003C0084F83D3084F83E0082E702001000E6
:1020A0000000FFFF2DE9F04399460023044689B064
:1020B00003930D469046129FFFF7B6FA94F83D3011
:1020C0000646202B04D00225284609B0BDE8F0833F
:1020D00000901923012220468D49FFF7A1FC00281A
:1020E000F1D194F83C30012BEDD00123206884F825
:1020F0003C3003682946DB0758BF036842465CBF93
:1021000043F001030360036823F4006303602223A8
:1021100084F83D30402384F83E3000232364109B34
:1021200020466362BDF84430CDE900766385638D57
:102130002385784BE3624B46FFF722FD054608B145
:102140000125C1E7228D2368C2B904905A6904921F
:102150009A690492049A1A6842F400721A60DFF8CD
:10216000B881DFF8B891238D002B37D1202284F875
:102170003C3084F83D2084F83E30A5E7012A11D197
:102180001A6822F480621A6072B6236805905A6950
:1021900005929A690592059A1A6842F400721A60CB
:1021A00062B6DCE7022A1A680ED142F400621A60B5
:1021B00072B6236806905A6906929A690692069A40
:1021C0001A6822F48062EAE742F480621A6007909B
:1021D0005A6907929B690793079BC0E7032B78D83E
:1021E000012B15D1324639462046FFF7EAFB00287D
:1021F000A6D123681A69636A1A70636A013363623D
:10220000238D013B2385638D013B9BB26385AAE748
:10221000022B4FF000023B4641462046009618D163
:10222000FFF7FEFB00288BD172B623681A6842F4D0
:1022300000721A601A69636A1A70636A0133636212
:10224000238D013B2385638D013B9BB2638562B681
:10225000CFE7FFF7E5FB00287FF472AF2268136831
:1022600023F48063136072B623681A69636A1A7074
:1022700046F2A812616A4B1C6362238D013B2385E1
:10228000638D013B9BB26385D9F80030B3FBF2F25A
:10229000232353430393039B013B0393039B6BB99A
:1022A0002022236384F83D2084F83E30226C42F0E3
:1022B0002002226462B684F83C3041E723685A6900
:1022C0005007E8D51A6842F400721A601B694B7017
:1022D000B3E7324639462046FFF773FB00287FF408
:1022E0002FAF23681A69636A1A70626A531C6362AB
:1022F000238D013B2385638D013B9BB2638523685E
:10230000596949077FF52FAF1B69537075E700BF07
:10231000020010000000FFFF040001000008002080
:102320002DE9F04F044685B01E460F469146FFF753
:102330007BF994F83D300546202B03D0022005B0F0
:10234000BDE8F08F00901923012220464C49FFF789
:1023500067FB0028F2D194F83C30012BEED001232A
:1023600084F83C3023684FF0010A1A68DFF810B196
:10237000D20758BF1A6807F0FE075CBF42F001029F
:102380001A601A6822F400621A60242384F83D302F
:1023900000232364A3F58033E36222684FF0011128
:1023A0001368204643F4807313603346002200957F
:1023B000FFF736FB236838B11B68DB0502D54FF405
:1023C000007323640320BAE71F61FFF72DF94FF074
:1023D000A008054623685A695B69C2F34002C3F34B
:1023E000802394F83D10A02901D013431DD04FF055
:1023F0002008236884F83D805A6912F0020F1A6899
:1024000042F400721A6025D0002203925A692046D5
:1024100003929B6901220393039B19491923009599
:10242000FFF7FEFA88B1012089E7FFF7FDF8401BAE
:10243000B04200D80EB984F83D8023685A695B69C0
:10244000C2F34002C3F38023CBE784F83D8084F8D5
:102450003C0074E76FF4806259465A6120461923A4
:1024600001220095FFF7DCFA0028DCD10AF1010A0D
:10247000CA4592D384F83D8084F83C00D3E700BF7E
:10248000020010002DE9F341054638B30368DB076D
:1024900010D42B689F075ED42B68190700F1958034
:1024A0002B685A0700F1BF80E869002840F02C81B2
:1024B000002029E08F4C636803F00C03042B07D045
:1024C000636803F00C03082B0AD16368DE0307D5A9
:1024D00023689C03DDD56B68002BDAD1012013E063
:1024E0006B68B3F5803F12D1236843F480332360D7
:1024F000FFF79AF8064623689803CAD4FFF794F8C2
:10250000801B6428F7D9032002B0BDE8F0819BB995
:10251000236823F480332360236823F4802323601B
:10252000FFF782F8064623689903B2D5FFF77CF8D7
:10253000801B6428F7D9E6E7B3F5A02F236803D101
:1025400043F480232360CFE723F4803323602368A0
:1025500023F48023CBE7674C636813F00C0F07D09C
:10256000636803F00C03082B10D16368DA030DD401
:1025700023689B0702D52B69012BAFD123686A69B9
:1025800023F0F80343EAC203236085E72A695A4B24
:102590006AB101221A60FFF747F8064623689F07D1
:1025A000ECD4FFF741F8801B0228F7D9ABE71A609B
:1025B000FFF73AF80646236898077FF56DAFFFF7F7
:1025C00033F8801B0228F6D99DE7AA69494E4B4B88
:1025D000DAB101221A60FFF727F80446736A9B07F5
:1025E0000DD54FF4FA52464B1B68B3FBF2F301933F
:1025F00000BF019B5A1E0192002BF9D150E7FFF753
:1026000013F8001B0228E9D97DE71A60FFF70CF8E0
:102610000446736A9F077FF543AFFFF705F8001B79
:102620000228F6D96FE7334CE369D80024D4012798
:10263000E36943F08053E361E36903F0805300935F
:10264000009B304E3368D90518D5EB68012B26D195
:10265000236A43F001032362FEF7E6FF41F2883864
:102660000646236A9B073FD5002F3FF41DAFE36961
:1026700023F08053E36117E70027E2E7336843F470
:1026800080733360FEF7D0FF80463368DA05DCD410
:10269000FEF7CAFFA0EB08006428F6D933E7ABB910
:1026A000236A41F2883823F001032362236A23F06E
:1026B00004032362FEF7B8FF0646236A9807D3D5C2
:1026C000FEF7B2FF801B4045F7D91CE7052B236AB4
:1026D00003D143F004032362BAE723F0010323622A
:1026E000236A23F00403B6E7FEF79EFF801B4045F4
:1026F000B7D908E70010024000004242800442427D
:1027000000080020007000402A4B5A681C4602F066
:102710000C02082A3DD00023274E022833602BD11B
:10272000FEF782FF0746236899011FD42B6AB3F591
:10273000803F05D16268A96822F400320A436260D2
:10274000696A62680B4322F47412134363600123C5
:102750003360FEF769FF054623689A013FF5A8AE8E
:10276000FEF762FF401B0228F6D9CCE6FEF75CFFBD
:10277000C01B0228D7D9C6E6FEF756FF05462368D8
:102780009B017FF595AEFEF74FFF401B0228F6D95F
:10279000B9E601283FF4B8AE5B682A6A03F48031D9
:1027A00091427FF49BAE6A6A03F4701393423FF444
:1027B0007FAE93E6001002406000424230B5184BF5
:1027C00087B002AC03F11005224618685968083337
:1027D00003C2AB421446F7D140F201231149ADF8D0
:1027E00004304B6803F00C02082A17D1C3F383426C
:1027F00006A80244DB0312F8102C0CD54B680A48DB
:10280000C3F34043504306AA134413F8143CB0FBEF
:10281000F3F007B030BD05485043FAE70248F8E747
:10282000D67600080010024000127A0000093D0030
:102830002DE9F0410D46044610B90120BDE8F081B4
:10284000444A136803F007038B4228D321688E079C
:1028500030D4CA0743D43F4A136803F00703AB429E
:1028600065D822683C4D12F0040F6CD1130706D5D1
:102870006B68226923F4605343EAC2036B60FFF77D
:102880009DFF6B68354AC3F30313D35CD840344BC8
:102890001860344B1868FEF785FE0020CEE71368F9
:1028A00023F007030B431360136803F007038B4205
:1028B000C3D1CBE7284B11F0040F1EBF5A6842F476
:1028C000E0625A60080742BF5A6842F460525A6098
:1028D0005A68A06822F0F00202435A60B9E76268C1
:1028E0001D4E012A33681AD113F4003FA5D0736836
:1028F00041F2883823F0030313437360FEF794FE1C
:1029000007467368626803F00C03B3EB820FA2D032
:10291000FEF78AFEC01B4045F3D903208EE7022A4A
:1029200002D113F0007FE1E713F0020FDEE7136836
:1029300023F007032B431360136803F00703AB4234
:102940007FF47BAF8DE76B68E16823F4E0630B43B2
:102950006B608BE70020024000100240BE7600084A
:102960000008002008080020044B054A5B68C3F3F8
:102970000223D35C034A1068D8407047001002401D
:10298000CE76000800080020014B1868704700BF91
:102990000C08002070B500260C4D0D4C641BA410D3
:1029A000A64209D104F02AFC00260A4D0A4C641BF9
:1029B000A410A64205D170BD55F8043B98470136D6
:1029C000EEE755F8043B98470136F2E79C7B000898
:1029D0009C7B00089C7B0008A07B00080346024407
:1029E000934200D1704703F8011BF9E7002B2DE952
:1029F000F0471F46BBBF03F100431F4600232D23B2
:102A000088B01446129A109D1370149BDDF84CA0E8
:102A100023F02008B8F1460F05D0B8F1450F00D1DA
:102A20000135022300E0032307AA049206AACDE998
:102A300002A2CDE9003522463B4601F0A1FDB8F1E6
:102A4000470F064602D1119BDB0722D5B8F1460F8E
:102A500006EB050910D13378302B0AD10022002370
:102A600020463946FDF7A0FF18B9C5F10105CAF89F
:102A70000050DAF8003099440022002320463946FD
:102A8000FDF792FF08B1CDF81C903022079B4B4513
:102A900007D33046079B159A9B1B136008B0BDE80F
:102AA000F087591C07911A70F0E70346F7B5002923
:102AB00003F8022BB6BF2D222B224942092942706E
:102AC0002BDD0DF10704A4460A2791FBF7F60A4611
:102AD000A64607FB1615632A05F13005314604F1B9
:102AE000FF340EF8015CF0DC3031AEF1020504F881
:102AF000011C2946441C61450AD30DF10902A2EBD1
:102B00000E02654588BF00221344181A03B0F0BDB9
:102B100011F8012B04F8012FEDE7302330318370D9
:102B2000C170031DF1E700002DE9F04F91B00C4694
:102B3000DDF8688016461F46054602F075FE0368FC
:102B400018460993FDF704FB00230E93D8F80030D4
:102B50000A90073323F0070303F1080294F8189052
:102B6000D4F800B0C8F80020D3E90023C4E9122348
:102B7000D4E9128A2AF000430B934FF0FF3240460B
:102B80009C4B0B99FDF742FF70BB4FF0FF32404664
:102B9000984B0B99FDF71CFF30BB002200234046E9
:102BA0005146FDF70BFF10B12D2384F84330924BB3
:102BB0009248B9F1470F94BF9846804603234FF0DF
:102BC000000A23612BF00403236033462146284684
:102BD00000970FAA00F0D4F9013040F090804FF038
:102BE000FF3011B0BDE8F08F424653464046514693
:102BF000FDF70CFF48B1BAF1000FB8BF2D23804894
:102C0000B8BF84F843307F4BD3E7636809F0DF0136
:102C10005A1C42D106236360002206920EAACDE917
:102C200004920DAA4BF4806303920DF13302CDE9B7
:102C300001322360636842460093284653460B9155
:102C4000FFF7D4FE0B99804647290D9908D1C81C7F
:102C500002DB6368994240DDA9F102095FFA89F954
:102C6000B9F1650F1FD84A46013904F150000D91A2
:102C7000FFF71BFF0E9A82461318012A236102DC1C
:102C80002268D20701D5013323619DF83330002B30
:102C90009BD02D2384F8433097E74729BCD1002BE4
:102CA000BAD10123B7E7B9F1660F18D100296368DB
:102CB0000BDD216113B92268D00702D501330B4423
:102CC00023614FF0000AA165DFE713B92268D2073C
:102CD00001D50233F4E70123F2E74FF067090E9BB9
:102CE000994205DB23682161D807EAD54B1CE7E749
:102CF0000029CCBF0122C1F102021344E0E723689E
:102D00005A0507D42369424631462846B847013060
:102D10002BD164E7B9F1650F40F2DD80D4E91201EF
:102D200000220023FDF740FE002833D00123314666
:102D30002846354AB84701303FF451AFDDE90D234D
:102D40009A4202DB2368D8070FD5DDE90923314613
:102D50002846B84701303FF442AF4FF0000804F175
:102D60001A090E9B013B434509DC23689B0700F1D0
:102D70000281E0680F9B9842B8BF184631E70123F3
:102D80004A4631462846B84701303FF428AF08F19B
:102D90000108E6E70D9B002B38DC0123314628466D
:102DA000194AB84701303FF41AAFDDE90D23134348
:102DB00002D12368D907D8D5DDE909233146284651
:102DC000B84701303FF40BAF4FF0000904F11A0A85
:102DD0000D9B5B424B4501DC0E9B94E70123524661
:102DE00031462846B84701303FF4F9AE09F10109F0
:102DF000EEE700BFFFFFEF7FEC760008F0760008FB
:102E0000F8760008F4760008FC7600080E9AA36DA8
:102E10009A42A8BF1A46002A914637DC4FF0000BB1
:102E200029EAE97904F11A02D4F858A0AAEB0903B7
:102E30005B4533DCDDE90D239A423BDB2368DA078F
:102E400038D40E9A0D99A2EB0A03A2EB0109994519
:102E5000A8BF9946B9F1000F34DC4FF0000829EA09
:102E6000E97904F11A0ADDE90D239B1AA3EB0903A2
:102E700043457FF77AAF0123524631462846B8478B
:102E800001303FF4ACAE08F10108ECE713463146DF
:102E900042462846B8470130C0D1A0E6012331465A
:102EA00028460B92B84701303FF499AE0B9A0BF1CC
:102EB000010BB9E73146DDE909232846B84701305F
:102EC000BFD18CE64B463146284608EB0A02B8478C
:102ED0000130C2D183E60E9A012A01DCDB0737D527
:102EE0000123424631462846B84701303FF477AEC9
:102EF000DDE9092331462846B84701303FF46FAE7B
:102F0000D4E9120100220023FDF74EFDD8B90E9B33
:102F100008F10102013B31462846B84701300ED185
:102F20005DE601234A4631462846B84701303FF462
:102F300056AE08F101080E9B013B4345F1DC5346B8
:102F400004F15002E0E64FF0000804F11A09F2E73C
:102F500001234246DFE701234A4631462846B84767
:102F600001303FF43CAE08F10108E3680F995B1AA9
:102F70004345F0DCFDE64FF0000804F11909F4E7E1
:102F80002DE9F047164699468A680B690746934231
:102F9000B8BF1346336091F843200C46DDF820801B
:102FA0000AB1013333602368990642BF33680233A4
:102FB0003360256815F0060506D104F1190AE368A7
:102FC00032689B1AAB4228DC94F84320131E226817
:102FD00018BF012392062DD44946384604F1430216
:102FE000C047013020D02368E56803F00603042BB6
:102FF00018BF002532684FF00006A36808BFAD1A5D
:10300000226908BF25EAE5759342C4BF9B1AED18F3
:103010001A34B5421AD1002008E00123524649462D
:103020003846C047013003D14FF0FF30BDE8F0878C
:103030000135C4E73020E11881F843005A1C94F8A8
:1030400045102244023382F84310C5E7012322468B
:1030500049463846C0470130E6D00136D9E700007E
:103060002DE9FF470C46277E9146782F80469A46E9
:103070000C9904F1430207D8622F0AD8002F00F000
:10308000D980582F00F0A48004F1420684F84270E1
:103090003AE0A7F16303152BF6D801A050F823F00E
:1030A000F93000080D310008893000088930000827
:1030B00089300008893000080D3100088930000887
:1030C0008930000889300008893000081B32000868
:1030D0003D310008FD3100088930000889300008C2
:1030E0003D320008893000083D3100088930000871
:1030F00089300008053200080B6804F142061A1DE9
:103100001B680A6084F842300123A4E0256808683F
:103110002E0600F104030AD505680B60002D03DAC2
:103120002D236D4284F843300A235E4819E015F0E0
:10313000400F05680B6018BF2DB2EFE70B682568DC
:10314000181D0860280601D51D6802E06906FBD538
:103150001D886F2F0CBF08230A235248002184F8D2
:1031600043106668002EA8BF2168A660A4BF21F0A6
:10317000040121600DB9002E4DD01646B5FBF3F1C8
:1031800003FB1157C75D06F8017D2F46BB420D4674
:10319000F4D9082B0BD12368DF0708D523696168B0
:1031A0009942DEBF302306F8013C06F1FF36921B40
:1031B00022614B4621464046CDF800A003AAFFF706
:1031C000DFFE01304CD14FF0FF3004B0BDE8F08796
:1031D000344884F845700E68236856F8045B1F066F
:1031E0000E6014D5D90744BF43F0200323601DB9F6
:1031F000236823F0200323601023AFE7236843F004
:10320000200323607823284884F84530E3E75E06EE
:1032100048BFADB2E6E71646BBE70B6826681D1D42
:1032200060690D6035061B6801D5186002E0710603
:10323000FBD51880002316462361BAE70B681A1DD8
:103240000A601E6800213046626802F00BFB08B17C
:10325000801B606063682361002384F84330A8E723
:103260003246494640462369D0470130ABD02368F7
:103270009B0713D4E068039B9842B8BF1846A4E7A5
:103280000123324649464046D04701309BD00135A4
:10329000E36803995B1AAB42F2DCEBE7002504F12B
:1032A0001906F5E7FE7600080F7700082DE9F04FC4
:1032B00087B003938B6817465A1EB2F5AE7F85BF61
:1032C0006FF4AE755B190023029388BF40F25D1363
:1032D0008B464FF000058CBF8B6002930B688046D5
:1032E00043F4F0634BF81C3B0C465E46AA46A946E5
:1032F000CDE904550195A26852B13B681B784E2B6D
:1033000064D8402B3CD8A3F12B01C8B20E283AD97F
:10331000B9F1000F03D0236823F4807323600AF10E
:10332000FF3ABAF1010F00F213815E4500F2058108
:103330000125284607B0BDE8F08FA3F161020D2AF0
:10334000E6D801A151F822F08734000811330008B3
:103350001133000811330008E7340008BF340008B7
:1033600011330008113300089534000811330008A8
:103370001133000811330008113300084D340008E0
:10338000A3F14102DBE70E29C2D801A050F821F0D9
:103390003F340008113300083F340008D3340008DC
:1033A00011330008ED3300082934000829340008DF
:1033B0002934000829340008293400082934000879
:1033C0002934000829340008293400086E2B09D854
:1033D000602BB2D8542B77D0592B99D1072D97D188
:1033E000082529E0742B6FD0792BF6E72168C805F2
:1033F0001AD5029B21F08001216009F101091BB15E
:10340000013B01320293A260A368013BA3602369E0
:10341000013323617B68013B002B7B6040F3848098
:103420003B6801333B6066E71AEB050F7FF470AF32
:10343000226822F4C072226006F8013BE4E72268A9
:1034400010067FF565AF22F08002F4E7BAF1000FB5
:103450000ED1B9F1000F0ED1226802F4E061B1F58E
:10346000E06F08D122F4F0624FF0010A2260E3E736
:10347000BAF1020F55D0012D02D0042D7FF448AFD0
:103480000135EDB2D8E7BAF1010F7FF441AF4FF04B
:10349000020AD1E77DB9B9F1000F7FF43CAF226891
:1034A00002F4E061B1F5E06F7FF439AF22F4F0622D
:1034B00001252260C0E7032DE2D0052DDEE7022DB5
:1034C0007FF426AF0325B7E7062D7FF421AF07254C
:1034D000B2E7226891057FF51BAF22F420722260CB
:1034E000CDF80490A8E7226802F4A061B1F5806FDE
:1034F00006D050057FF50CAFB9F1000F3FF40FAFC8
:10350000910558BF019922F4F06258BFA9EB01015F
:1035100042F4C0724FF0000958BFCDE90416226092
:103520008AE74FF0030A87E739464046D4F88031EE
:10353000984700283FF4DFAEEAE6D4F87C313A46FB
:10354000404616F8011D98472369013B2361ECE6CC
:103550006B1E062B25D8022D36D85E457FF6E8AEC9
:10356000D4F87C313A46404616F8011D9847236945
:10357000013B2361F1E70298D4F87C3110F8011D7A
:103580003A460290404698472369013B23610AF17D
:10359000FF3A5FFA8AFABAF1020FECD1033DEDB2BD
:1035A000761B2368DA052FD55B0510D55E457FF6BF
:1035B000BFAED4F87C313A46404616F8011D984714
:1035C0002369013B2361F1E7AA460296DFE716F87B
:1035D000011C2369652903F1FF3306F1FF352361DF
:1035E0000CD045290AD0D4F87C313A464046984759
:1035F000236916F8021C013BB51E23613A4640467A
:10360000D4F87C3198472E46256815F0100559D11D
:103610003570236803F4C063B3F5806F1CD1019B40
:103620004B45A3EB090224D100225946404600F045
:103630008BFED4F800C0039B1CF0020F06460F4619
:103640001B6821D003991A1D0A601B68C3E9006733
:10365000E3680133E3606CE6049B002BE4D005993A
:103660000A232A464046013100F0FAFE049B059EDB
:10367000C21A04F26F139E4228BF04F5B776304693
:10368000114900F029F8CFE71CF0040F03F1040EF4
:1036900003D00399C1F800E0D7E7039AC2F800E02D
:1036A000D3F8008002460B46FDF7B0F928B1074871
:1036B00000F00EF8C8F80000CAE730463946FDF7BA
:1036C00003FAF7E7002534E620770008387B000886
:1036D000004870470000C07F0EB46FF0004100B595
:1036E0009CB01DAB029006900791049108480949CF
:1036F00053F8042B0591006802A9019302F096FE8D
:103700000022029B1A701CB05DF804EB03B07047F6
:103710000C0800200802FFFF2DE9F0410F469046FB
:1037200002F02CFC04460D46B8F1000F11D0C7F38F
:103730000A53C3F16B03002B0BDD00241B0503F1BF
:103740007F5505F5401522462B46FCF7C5FE04467D
:103750000D4620462946BDE8F0810000000000002B
:103760002DE9F04F9B460023A1B01C93A14B82464C
:103770001F680E4638461792FCF7EAFC4FF0000827
:1037800004464FF000091B961B9B1A782B2A4CD03D
:103790003AD80D2A33D8082A33D8002A3DD000233E
:1037A0000C931B9D2B78302B40F0AF806B7803F08F
:1037B000DF03582B6CD10C9B504601931CAB00933C
:1037C0008D4ACDF808B01DAB1BA901F02FFD10F0FC
:1037D0000706044605D0062E29D1002301351B9586
:1037E0000C93179B002B40F096850C9BD3B142465F
:1037F00009F100431046194621B0BDE8F08F202A98
:10380000CDD101331B93BFE72D2AC8D101220C92E1
:103810005A1C1B925B78002BC3D1179B1B96002B65
:1038200040F0778542464B46E4E70022EFE71C9ADA
:103830003AB135211EA802F0A5FC50461C9902F0B1
:103840006DF8013E052E07D8DFE806F00E0B181DB7
:103850000E034FF00009C8462107C2D549F00049C0
:10386000BFE7DDE91E89F7E71D9ADDE91E8302F255
:10387000334223F4801343EA0259EDE74FF0000886
:10388000DFF87891E8E76FF000494FF0FF38E3E7A1
:103890001B9B5A1C1B925B78302BF9D0002BA0D0BD
:1038A000012307931B9B0A22089300239B46CDE923
:1038B00005331B980578A5F13003D9B2092926D91B
:1038C0002246394602F0C8FE002832D000202B469E
:1038D0005C4602460490652B01D0452B13D11CB9E0
:1038E000079B034399D000241B9E731C1B93737882
:1038F0002B2B78D02D2B7BD00027A3F13001092969
:1039000040F282801B9600259EE00023C9E7BBF1B0
:10391000080FD5BF0699059902FB013302FB01335D
:1039200000F10100D4BF069305930BF1010B1B902E
:10393000BFE71B9B1A191B921B5DBBF1000F36D012
:103940005C460490A3F13002092A12D90122C2E791
:103950001B9B01305A1C1B925B78302BF8D0A3F1D3
:103960003102082A00F2DC840490002004461B9AED
:103970000892303B00F1010213D00499051911445B
:10398000049122460A21AA4213D12218082A04F1DE
:10399000010404441BDC0A22069902FB013306934E
:1039A00000221B9B1046591C1B915B78CAE75846A6
:1039B000D3E7082A04DC069F4F4306970132E2E76B
:1039C000571C102FDEBF059F4F430597F6E7102CBD
:1039D000DFBF0A22059902FB01330593E0E70023CC
:1039E000012204937CE70027B31C1B93B37884E780
:1039F0000127F9E778790008287700080000F07FB0
:103A00001B9B591C1B915B78302BF9D0A3F1310122
:103A100008293FF678AF4FF00A0EA3F1300C1B9B3C
:103A200009931B9B591C1B915B78A3F13005092D51
:103A300035D9099D491B082944F61F6502DC6545F7
:103A4000A8BF654607B16D42002C4CD107990143D0
:103A50007FF4C7AE002A7FF4E0AE692B26D023DCCA
:103A6000492B23D04E2B7FF4D8AE9C491BA801F0E4
:103A70002BFE00283FF4D1AE1B9B1B78282B2CD1AA
:103A800097491EAA1BA801F033FE052825D11F9BCC
:103A9000DDF8788043F0FF4949F4E009A1E60EFB28
:103AA0000C3CACF1300CBCE76E2BDCE78D491BA85D
:103AB00001F00AFE00283FF4B0AE1B9B8A49013B8F
:103AC0001BA81B9301F000FE10B91B9B01331B9335
:103AD0004FF00008DFF8209283E6844802F0A6FD4C
:103AE000804689467DE6049BBBF1000F08BFA346D4
:103AF000EB1A102C069826460793A8BF1026FCF751
:103B000071FC092C8046894613DD794B03EBC60313
:103B100053E91223FCF7E0FC804605988946FCF740
:103B200061FC02460B4640464946FCF71FFB8046B7
:103B300089460F2C36DC079B002B3FF452AE22DD6A
:103B4000162B09DC6A4C424604EBC3044B46D4E90D
:103B50000001FCF7C1FCC3E7079AC4F125039342B7
:103B600020DB634DC4F10F0405EBC4014246D1E9EB
:103B700000014B46FCF7B0FC079B1C1B05EBC40582
:103B8000D5E90023E5E7079B16330BDB049B584A76
:103B90005D1B02EBC5054046D5E900234946FCF70D
:103BA000C5FD9DE7079BA61B1E44002E71DD16F088
:103BB0000F030AD04E49424601EBC301D1E900018F
:103BC0004B46FCF789FC8046894636F00F0650D0FC
:103BD000B6F59A7F27DD4FF0000BCDF810B0CDF889
:103BE00020B0CDF818B022234FF00008DFF808917C
:103BF000CAF80030089B002B3FF4F3AD50461C99E7
:103C000001F08CFE5046069901F088FE504604995A
:103C100001F084FE5046089901F080FE5946504656
:103C200001F07CFEDDE50023404649461F46361183
:103C3000012E21DC0BB1804689462E4BA9F1547927
:103C400003EBC7074246D7E900014B46FCF744FCAB
:103C5000294B0A460B40294980468B42BBD8A1F527
:103C600080118B4286BF4FF0FF38DFF8949002F14D
:103C70005479002305937EE0F20707D51D4B03EB33
:103C8000C703D3E90023FCF727FC01230137761093
:103C9000CEE7EED0764216F00F020AD0144B404623
:103CA00003EBC2034946D3E90023FCF73FFD8046FE
:103CB00089463611DDD01F2E24DD4FF0000BCDF8E4
:103CC00010B0CDF820B0CDF818B022234FF0000886
:103CD0004FF00009CAF800308CE700BFF976000801
:103CE0003C770008F17600087C780008387B0008F3
:103CF000187A0008F07900080000F07F0000A07C2E
:103D0000FFFFEF7F16F0100318BF6A2340460593AC
:103D100049460023B24FF20704D5D7E90023FCF748
:103D2000DBFB0123761007F10807F4D10BB18046C5
:103D30008946059BBBB1C9F30A53C3F16B03002B42
:103D4000494610DD1F2B40F32B81342BD8BF4FF099
:103D5000FF324FF00008CFBF4FF05C79203B02FAF2
:103D600003F303EA01090022002340464946FCF719
:103D70001BFE0028A1D1069B5A46009350462346BD
:103D8000089901F037FE089000283FF424AF049B07
:103D90004FF0000B5D1B079BCDF810B0002BB4BF9C
:103DA0002B4600230E93079B23EAE3731693089B8D
:103DB0005046596801F072FD069000283FF413AF99
:103DC000089B0C301A6903F10C010232920001F0D9
:103DD00057FD1EAB01931DAB009342464B46504628
:103DE000CDE90A8902F044F91C9000283FF4FBAEAB
:103DF0000121504601F096FE0346049000283FF44E
:103E0000F2AE1D9D1E9A002DABBF0E9B169BEE18A9
:103E10005C1B059BA8BF169CA5EB03051544714BC5
:103E200005F1FF35B8BF0E9E9D42C2F1360280F209
:103E3000C9805B1B1F2B4FF00107A2EB030200F3AD
:103E4000B680002507FA03F30F93B718059BBE420F
:103E500014441C443346A8BF3B46A342A8BF234694
:103E6000002BC2BFFF1AE41AF61A0E9B002B17DDB7
:103E70001A465046049901F00FFF049000283FF4C1
:103E8000B2AE01461C9A504601F062FE099000282D
:103E90003FF4A9AE50461C9901F040FD099B1C93CC
:103EA000002F00F39380079B002B08DD5046169AE5
:103EB000069901F0F1FE069000283FF494AE002C24
:103EC00008DD22465046069901F040FF0690002882
:103ED0003FF489AE002E08DD32465046049901F0C9
:103EE00035FF049000283FF47EAE5046069A1C9998
:103EF00001F0B4FF834600283FF475AE0024C36888
:103F00000499C4600D9301F08DFFA04270DA0D9BFF
:103F100053EA080340F09680C9F31303002B40F0E6
:103F2000918029F000431B0D1B05B3F1D66F40F2C1
:103F30008980DBF8143023B9DBF81030012B40F313
:103F4000818059460122504601F000FF04998346C2
:103F500001F068FF002875DD05994B46224A0029CB
:103F600000F0918002EA0901B1F1D66F00F38B8075
:103F7000B1F15C7F7FF7A9AE00231C4A4046CDE932
:103F800014324946DDE91423FCF7A6FA0B46034335
:103F900008BF22238046894608BFCAF800302DE6B4
:103FA0004FF0FF3202FA03F303EA0808DBE6C5F13B
:103FB0007F4505F57F0505F57B45E23507FA05F5F3
:103FC0000F9742E7012300250F933EE73A465046FC
:103FD0001C9901F0BBFE1C9000287FF464AF02E640
:103FE0005077000802FCFFFF0000F07F000050390E
:103FF000CDF8249066D10D9AC9F313035AB39C4AA5
:1040000093422CD1059B404603B34B46994A4FF04F
:10401000FF311A40B2F1D46F1BD8120DC2F16B03FD
:1040200001FA03F398421AD1934B099A9A4202D1AA
:1040300001303FF4D8AD4FF000088E4B099A1A407A
:1040400002F58019059B002B96D1D7E54FF0FF3381
:10405000E8E70B46E6E753EA08033FF47DAFE5B136
:10406000099B1D42EED00D9B40464946059AC3B1BF
:10407000FFF752FB02460B46DDE90A01FCF776F832
:1040800080468946DEE71340A3F580136FEA135993
:104090004FF0FF386FEA0959D4E70F9B13EA080F76
:1040A000E0E7FFF739FB02460B46DDE90A01FCF7C2
:1040B0005BF80022002380468946FCF775FC002847
:1040C000C0D002E65846049902F02EF800224FF0C4
:1040D000804306460F46FCF77BFC002875D00D9BFD
:1040E000002B47D00026654F644D099B23F0004309
:1040F0001B0D1B050F930F9A614B9A4240F0C8802D
:10410000DDE90A23CDE91423099B4046A3F1547944
:10411000494601F033FF02460B4630463946FCF76C
:10412000DBF942464B46FCF721F80B465149554A0C
:104130001940914280465ED90B9B02F15472934222
:1041400003D10A9B01333FF44EAD4FF0FF38DFF847
:10415000289150461C9901F0E1FB5046069901F068
:10416000DDFB5046049901F0D9FB5946504601F059
:10417000D5FB1CE6B8F1000F19D1099BC3F313035B
:10418000E3B90022304639463C4BFCF717FCC8B96E
:104190000022304639463C4BFCF79EF904460D465A
:1041A00005F1004318941993DDE918679DE7B8F10C
:1041B000010F03D1099B002B3FF487AD002600249B
:1041C000324F91E70D9C304DEAE72F4B00223046ED
:1041D0003946FCF781F90D9B04460D4633B901F1D0
:1041E000004310901193DDE910677EE702460B460D
:1041F000CDE91023F7E703F15479059B002BA8D1F3
:1042000029F000430F9A1B0D1B059A42A1D12046AD
:104210002946FCF71FFDFCF731F902460B46204604
:104220002946FBF7A1FF0D9AC9F3130343EA0803DC
:10423000134304460D4666D009A3D3E90023FCF7D7
:10424000BDFB00287FF4DAAC07A3D3E900232046A6
:104250002946FCF7D1FB00283FF47BAFCEE400BF3A
:104260009535A094FFFFDF3F35E5AF350000E03F17
:10427000FFFF0F000000F07FFFFFEF7F0000F03F27
:104280000000E07FFFFF9F7C0000E03F0000F0BFE8
:10429000059B13B30F9BB3F1D46F1ED826A3D3E9AC
:1042A000002320462946FCF793FB90B1294620467F
:1042B000FCF7EAFB012838BF0120FCF793F80D9BBF
:1042C00004460D46D3B901F1004312901393DDE982
:1042D00012670F9A07F1D6639F1ADDE90A0101F010
:1042E0004DFE02460B4630463946FCF7F5F8DDE94F
:1042F0000A23FBF73BFF804689467EE702460B46D2
:10430000CDE91223E3E70EA3D3E90023FCF756FB24
:10431000A1E700230C931B9B179A1360FFF765BA64
:10432000652B3FF45CAB452B3FF459AB0122FFF703
:104330008DBB00BFAFF300800000C0FFFFFFDF4177
:104340009535A094FFFFCF3F014BFFF709BA00BF9F
:1043500074080020012B2DE9F047864601D0242B5C
:1043600006D9FEF711FB162303600020BDE8F08795
:104370008C463A4E60461CF8014BA55D15F00805C9
:10438000F8D12D2C33D14FF001089CF8004000F1FA
:10439000020C002B5DD0102B0CD1302C0AD19CF8D4
:1043A000000000F0DF0058284ED110239CF8014097
:1043B0000CF1020C002508F10047013FB7FBF3F9AF
:1043C000284603FB197AA4F13006092E18D8344682
:1043D000A34224DD002D1FDB81451DD301D1A24561
:1043E0001ADB012500FB03401CF8014BEBE72B2CEB
:1043F00008BF9CF80040A84608BF00F1020CC8E7BF
:10440000A4F14106192E01D8373CE1E7A4F1610679
:10441000192E04D8573CDBE74FF0FF35E4E7002DB9
:1044200008DA22233846CEF80030002A9ED00CF15C
:10443000FF3107E0B8F1000F00D04042002A95D0CC
:10444000002DF4D1116091E73024002BB2D1082364
:10445000B0E7302CA3D00A23ACE700BF797700087F
:10446000FFF778BF2DE9F74F03690C690746A342B0
:10447000C0F28380013C00F1140501F1140805EB42
:104480008403019358F8243055F8242001339A42CC
:10449000B2FBF3F64FEA840B08EB840932D34FF0FA
:1044A000000E4046AC46F24650F8042B93B206FB91
:1044B00003E3120C4FEA134E06FB02E29BB2AAEB97
:1044C0000303DCF800A04FEA124E1FFA8AFA5344A5
:1044D0001FFA82FADCF800208145CAEB124202EB97
:1044E00023429BB243EA02434FEA224A4CF8043B80
:1044F000DAD255F80B302BB9019B043B9D421A468A
:104500002FD33C61384601F08DFC002825DB28467E
:104510004FF0000C013658F8041BD0F800E08BB2C5
:10452000ACEB03031FFA8EF213440A0CC2EB1E42DB
:1045300002EB23429BB243EA0243C1454FEA224CBD
:1045400040F8043BE7D255F8242005EB840322B958
:10455000043B9D421A460AD33C61304603B0BDE895
:10456000F08F1268043B002ACBD1013CC6E71268E9
:10457000043B002AF0D1013CEBE70020EEE700000D
:104580002DE9F04F16461F46446A99B00546CDE91D
:104590000467DDF8948074B9102001F049F90246EF
:1045A000686220B9EA21AE4BAE4802F075F8C0E966
:1045B00001440460C4606B6A196851B15A680123F0
:1045C00093404A608B60284601F0A8F900226B6A8C
:1045D0001A603B1EAFBF0023012223F00043059366
:1045E000A8BFC8F80030DDF814909F4BB8BFC8F8DA
:1045F000002033EA090319D142F20F73249A1360A1
:10460000C9F31303334300F08085269B53B9974BBE
:1046100022E0974B08930833269A1360089819B044
:10462000BDE8F08F914B08930333F5E7DDE90434DF
:10463000CDE90C34DDE90C0100220023FCF7B4F9CC
:10464000804658B10123249A1360269B002B00F06A
:10465000598588481860431E0893DFE716AB01931D
:1046600017AB00932846DDE90C2301F001FDC9F3E7
:104670000A548246002C7ED0DDE90C010D9BA4F289
:10468000FF34C3F3130343F07F5141F44011CDF8DD
:104690004C800022784BFBF767FD6BA3D3E9002326
:1046A000FBF71AFF6AA3D3E90023FBF75FFD064679
:1046B00020460F46FBF7A6FE67A3D3E90023FBF7CE
:1046C0000BFF02460B4630463946FBF74FFD0646C8
:1046D0000F46FCF7B1F900228146002330463946E7
:1046E000FCF76CF948B14846FBF78CFE32463B4676
:1046F000FCF75AF908B909F1FF39B9F1160F57D883
:10470000DDE90C015D4B03EBC903D3E90023FCF7A2
:1047100055F900284ED0002309F1FF390F93169B5D
:104720001C1B631E099349BFC4F1010300230693B8
:10473000002354BF06930993B9F1000F3CDB099B9A
:10474000CDF838904B44099300230A93229B092B00
:104750006CD8052BC4BF043B2293229BC8BF002406
:10476000A3F10203D8BF0124032B00F28B80DFE802
:1047700003F02D4F4D5BDDE916431C4404F2324338
:10478000202BC3BFC3F1400304F2124009FA03F324
:10479000C3F12003C6BF26FA00F0184306FA03F05F
:1047A000FBF720FE0123A1F1F871013C139370E7A0
:1047B0000123B3E70F90B2E7069BA3EB090306932F
:1047C000C9F100030A9300230E93BFE700230B9364
:1047D000239B002B59DC4FF0010B5B46CDF808B052
:1047E000CDF88CB00022686A4260042202F11406FF
:1047F0009E4241684FD9284601F050F808900028A1
:104800004DD102464FF4D5711D4BCDE60123DEE7B5
:1048100000230B93239B09EB030B0BF10103012BEB
:104820000293B8BF0123DDE70123F2E7012400234F
:104830000B9422934FF0FF3B00221223CDF808B0D7
:104840002392CFE7AFF3008061436F63A787D23F26
:10485000B3C8608B288AC63FFB799F501344D33F6F
:10486000867800089D7800080000F07F82780008B4
:1048700079780008FD7600080000F83F187A0008F3
:10488000FC78000801230B93D4E7DDF88CB05B467D
:10489000CDF808B0A6E7013141605200A6E76B6A87
:1048A000089A1A60029B0E2B00F2A880002C00F0E0
:1048B000A580B9F1000F34DD9A4A09F00F0302EB2D
:1048C000C30319F4807FD3E90034CDE910344FEAF3
:1048D000291416D0DDE90C01934B0327D3E90823F3
:1048E000FBF724FFCDE9040104F00F048E4E54B908
:1048F000DDE91023DDE90401FBF718FFCDE9040130
:1049000029E00227F2E7E10708D5DDE91001D6E941
:104910000023FBF7E1FDCDE91001013764100836F3
:10492000E5E700F0A580DDE90C01C9F100047D4B4D
:1049300004F00F0203EBC203D3E90023FBF7CCFD25
:1049400002270023CDE90401774E2411002C40F00A
:104950008480002BD2D10F9B002B00F08B80DDE9EF
:104960000434CDE91034DDE9100100226F4BFCF76F
:1049700025F800287ED0029B002B7BD0BBF1000FD6
:1049800038DDDDE910010022694BFBF7A5FD5C462F
:10499000CDE9040109F1FF3801373846FBF732FD54
:1049A000DDE90423FBF798FD0022624BFBF7DEFBF9
:1049B000A1F15076CDE910011196002C5DD1DDE911
:1049C000040100225C4BFBF7CFFB02460B46CDE90E
:1049D00004233346109AFCF70FF8002840F09E821B
:1049E000DDE90401109A06F10043FBF7E7FF002818
:1049F00040F09282DDE90C34CDE90434179B002BA2
:104A0000C0F25381B9F10E0F00F34F81454B03EB18
:104A1000C903D3E90034CDE90634239B002B80F28F
:104A2000DB80029B002B00F3D78040F07482DDE92D
:104A300006010022404BFBF74FFDDDE90423FBF7A5
:104A4000D1FF029C2646002840F04A823123089F6D
:104A500009F1010907F8013B46E2E20705D5D6E96D
:104A60000023FBF739FD01230137641008366DE799
:104A7000022770E7C846029C8FE70899294B21441A
:104A800012910B9903EBC403DDE9106753E902238C
:104A9000002955D000202949FBF748FE3B46324605
:104AA000FBF762FBCDE91001089FDDE90401FBF78C
:104AB000C3FF0446FBF7A6FC02460B46DDE90401F2
:104AC000FBF752FB02460B463034CDE90423DDE907
:104AD000102307F8014BFBF771FF002874D1DDE9C3
:104AE000042300201149FBF73FFBDDE91023FBF70E
:104AF00065FF002840F0B680129B9F423FF47AAFDA
:104B0000DDE9100100220A4BFBF7E6FC0022CDE9AB
:104B10001001DDE90401064BFBF7DEFCCDE90401E1
:104B2000C3E700BF187A0008F07900080000F03FE2
:104B30000000244000001C40000014400000E03F42
:104B400030463946FBF7C8FC129BCDE91001089CA2
:104B50001493DDE90401FBF76FFF1590FBF752FC9E
:104B600002460B46DDE90401FBF7FEFA159B0646FB
:104B7000303304F8013B129B0F469C424FF0000279
:104B800024D1DDE91001B34BFBF7F0FA02460B46E6
:104B900030463946FBF730FF002862D1DDE91023AB
:104BA0000020AC49FBF7E0FA02460B463046394696
:104BB000FBF704FF00283FF41DAF149F7B1E1493E6
:104BC00017F8013C302BF8D0C1463AE0A24BFBF776
:104BD00083FCCDE90401BCE7089FDDE90623DDE99C
:104BE0000401FBF7A3FDFBF727FF0446FBF70AFCD4
:104BF000DDE90623FBF770FC04F130060B460246A4
:104C0000DDE90401FBF7B0FA07F8016B089E029B8F
:104C1000BE1BB3423AD102460B46FBF7A7FA024647
:104C20000B46CDE90223DDE90623FBF7E5FE58BB81
:104C3000DDE90623DDE90201FBF7B6FE08B1E10775
:104C400022D42846514600F069FE00233B70249B85
:104C500009F101001860269B002B3FF4DFAC1F60B8
:104C6000DCE427463B461F4613F8012D392A07D1BD
:104C7000089A9A42F7D13022089908F101080A707F
:104C80001A7801321A709FE7C846EBE70022724B90
:104C9000FBF722FC02460B46CDE904230022002349
:104CA000FBF782FE002898D0CBE70B9A002A00F091
:104CB000CD80229A012A00F3AF80139A002A00F0D7
:104CC000A78003F233430A9C069F069A01211A44E7
:104CD0000692099A28461A44099200F023FF0646D4
:104CE000002F0CDD099B002B09DDBB42A8BF3B4612
:104CF000069AFF1AD21A0692099AD31A09930A9BA6
:104D0000F3B10B9B002B00F0A980002C10DD314685
:104D10002246284600F0C0FF524601460646284675
:104D200000F016FF80465146284600F0F7FDC246C7
:104D30000A9B1A1B04D05146284600F0ADFF82465C
:104D40000121284600F0EEFE0E9B0446002B40F3A6
:104D500087801A460146284600F09EFF229B0446A3
:104D6000012B40F380804FF00008236904EB83039C
:104D7000186900F089FEC0F12000099B184410F06A
:104D80001F0000F09280C0F12003042B40F38A80C2
:104D9000C0F11C00069B074403440693099B03448F
:104DA0000993069B002B05DD51461A46284600F064
:104DB000CDFF8246099B002B05DD21461A46284679
:104DC00000F0C4FF04460F9B002B70D021465046D4
:104DD00001F028F800286ADA002351460A22284602
:104DE00000F0BEFD0B9B824609F1FF39002B00F05D
:104DF0009381314600230A22284600F0B1FDBBF121
:104E0000000F064600F39380229B022B57DC8EE0B6
:104E1000169BC3F1360356E7029B5C1E0A9BA34216
:104E2000B7BF0A9B1C1BE21A0E9BBEBF0A949B18BD
:104E30000E93029BB8BF0024002BBBBF069B029AB7
:104E4000069F9F1AACBF029B00233EE70A9C069F69
:104E50000B9E45E70000E03F000024400A9A6AE705
:104E6000229B012B19DC049BBBB9059BC3F31303E5
:104E70009BB9059B23F000431B0D1B0583B14FF02D
:104E80000108069B01330693099B013309930E9B8E
:104E9000002B7FF46AAF01206FE74FF00008F6E7C0
:104EA0009846F4E73FF47DAF18461C3072E7029B4A
:104EB000002B36DC229B022B33DDDDF808B0BBF182
:104EC000000F0DD121465B460522284600F048FD23
:104ED00001460446504600F0A5FF00283FF7B6AD56
:104EE000239B089F6FEA03094FF0000821462846DC
:104EF00000F014FD002E3FF4A4AEB8F1000F05D071
:104F0000B04503D04146284600F008FD314628460A
:104F100000F004FD95E600242646E1E7C14626465A
:104F200094E50B9BDDF808B0002B00F0FC80002F0F
:104F300005DD31463A46284600F008FF0646B8F13E
:104F4000000F5CD02846716800F0A8FC074628B91D
:104F5000024640F2EA217E4BFFF726BB326906F19A
:104F60000C01023292000C3000F08AFC012239461A
:104F7000284600F0EBFEB0460646089B013302933C
:104F8000089B5B440A93049B03F001030993029B73
:104F90002146504603F1FF3BFFF764FA03464146C2
:104FA0003033049050460B9300F03CFF324606909D
:104FB0002146284600F052FFC26807460B9B02BB01
:104FC0000146504600F02EFF02460B9B394628460C
:104FD000CDE90B3200F0A2FC229B0C9A029F43EA1F
:104FE0000201099B0B430B9B0DD1392B27D0069A4D
:104FF000002A01DD049B31338BF8003076E7304620
:10500000B9E70122E2E70699002904DB229801436F
:105010000998014320D1002AEEDD5146012228469D
:10502000029300F093FE2146824600F0FBFE00282A
:10503000029B02DCE0D1DA07DED5392BDAD1392345
:105040008BF800303B461F4617F8012C013B392AEC
:1050500050D001321A7049E7002A03DD392BEED017
:105060000133C9E7029A0A9902F8013C8A422AD020
:10507000514600230A22284600F072FCB0458246C1
:105080004FF000034FF00A024146284607D100F0D6
:1050900067FC80460646029B0133029377E700F0E7
:1050A0005FFC3146804600230A22284600F058FC67
:1050B0000646F0E7BBF1000FCCBF5F4601274FF07B
:1050C0000008089A1744514601222846029300F02E
:1050D0003DFE2146824600F0A5FE0028B2DC02D14A
:1050E000029BDB07AED43B461F4613F8012D302A46
:1050F000FAD0FBE6089A9A42A5D1312309F10109B9
:105100001370F3E6134BFFF7A7BA269B002B7FF42F
:1051100080AA114BFFF7A0BABBF1000F03DC229B62
:10512000022B3FF7CCAE089F21465046FFF79AF975
:10513000089A00F1300307F8013BBA1A9345B9DD2C
:10514000514600230A22284600F00AFC8246EBE77B
:10515000FC780008FC7600087978000803692DE9DE
:10516000F043B3EB611F00F114044FEA611246DD16
:1051700011F01F0104EB830604EB82050CD12946D4
:1051800000F11007B14235D39B1A9B00EA1E9642EC
:1051900038BF0023234415E0A14654F82270C1F122
:1051A0002008CF4005F1040E7645F44616D89B1A28
:1051B0009A00043A0135AE4238BF0022A318A75026
:1051C00007B10433A342A3EB040208BF00234FEA54
:1051D000A202026108BF4361BDE8F083DCF800C0B1
:1051E0000CFA08FC4CEA070749F8047B5EF8047BDC
:1051F000CF40D9E751F804CB47F804CFC2E72346A4
:10520000E0E7A0F13003092B02D82038C0B2704784
:10521000A0F16103052B01D84738F7E7A0F141035E
:10522000052B01D82738F1E7002070472DE9F04F12
:105230008BB00693B94B02901B688B46184690467C
:105240000393FAF785FF8246039BDBF800200344B3
:1052500013F8013C0793931CC2F1FF2202F57F0271
:10526000FE32D1181F4613F8010B01913028F8D0F7
:10527000FFF7C7FF044600283AD152463846039943
:1052800001F0EAF90546002866D117F80A0007EB95
:105290000A06FFF7B6FF002860D0334618781F468D
:1052A000302803F10103F9D0FFF7ABFF0123B0FA77
:1052B00080F43546640901933A4616463078013247
:1052C000FFF79FFF0028F8D152463046039901F0BE
:1052D000C3F980B94DB906EB0A052A46164630785F
:1052E0000132FFF78EFF0028F8D1AD1BAD0004E0BE
:1052F00000242546E0E7002DF7D1337803F0DF03E3
:10530000502B39D173782B2B2AD02D2B2CD04FF04A
:105310000009711C0878FFF774FF431EDBB2182BDD
:105320002AD8A0F1100211F8010FFFF76AFF431EFF
:10533000DBB2182B1BD9B9F1000F00D05242154433
:10534000CBF80010D4B1019B002B14BF0027062717
:1053500038460BB0BDE8F08F3E4625460124CCE729
:105360004FF00009B11CD5E74FF00109FAE70A2315
:1053700003FB0202103AD6E73146E1E72146F31B70
:10538000013B072B0ADC029800F088FA044640B97A
:105390000246DE21624B634801F07EF901315B1069
:1053A000EFE74FF0000B00F11409CAF10103CDF84B
:1053B0001090CDF804B00893B7423FD3049F019BEF
:1053C00047F8043BA7EB0907BF102761184600F018
:1053D0005BFB7F01D8F800603F1AB74262DDBF1B5C
:1053E0003946204600F0F1FE8246A8B14FF0010A8E
:1053F0007B1E591159F8211003F01F020AFA02F21C
:105400000A4209D0534505DD2046B91E00F0DDFEF5
:10541000002844D14FF0020A39462046FFF79EFE8D
:105420003D44D8F80830AB424ADA2146029800F0F1
:1054300075FA0023149AA327136089E7731E079A4D
:10544000059316F8013C934219D0BBF1200F07D108
:10545000049B019A43F8042B049300239B46019379
:1054600016F8010CFFF7CDFE019B00F00F0000FACB
:105470000BF0034301930BF1040B059B0DE0059B1F
:10548000089A1344BB42E0D3184652460399099345
:1054900001F0E2F8099B0028D7D11E468CE74FF0B7
:1054A000030AB9E709DAF71B21463A46029800F0E9
:1054B0004DFC0446ED1B00F114094FF0000AB0E763
:1054C000D8F80400A84271DD451BAE4234DCD8F8A0
:1054D0000C30022B28D0032B2AD0012B15D1AE4241
:1054E00013D1012E0BD1D8F80430069A622713602D
:1054F00001232361C9F80030149B1C6028E7204673
:10550000711E00F062FE0028EDD12146029800F0E5
:1055100005FA0023149A5027136019E778790008D8
:10552000FC7800080D790008159B002BEDD1DAE717
:10553000159B002BD7D1E8E76F1EBAF1000F32D1CF
:1055400027B13946204600F040FE824601217B11FA
:1055500059F8233007F01F0701FA07F71F424FF0F1
:1055600002072946204618BF4AF0020A761BFFF7B9
:10557000F5FDD8F80450BAF1000F48D0D8F80C3037
:10558000022B15D0032B17D0012B09D11AF0020FD3
:1055900006D0D9F800004AEA000A1AF0010F0ED12D
:1055A00047F0100733E04FF0010ACFE70127E2E7A9
:1055B000159BC3F101031593159B002BF0D04FF001
:1055C000000CD4F810B004F114034FEA8B0A03EB7B
:1055D0008B01184653F8042BB2F1FF3F1CD0013267
:1055E0000260022F04F114033DD1D8F80020013AE3
:1055F000B2420AD10122711153F8213006F01F0680
:1056000002FA06F61E4218BF174647F02007149B01
:105610001C60069B1D609BE6994243F804CCD8D8D9
:10562000A3689B4517DB61680298013100F036F9E9
:10563000814618B902468421194BACE6226904F16F
:105640000C01023292000C3000F01AF92146029847
:1056500000F064F94C4623695A1C2261012204EBD4
:1056600083035A61BDE722695A450BDD01212046BB
:10567000FFF774FDD8F808300135AB42FFF6D5AE20
:105680000127C2E716F01F06FAD09A445AF8040C14
:1056900000F0FAF9C6F12006B042E7DBF0E700BF00
:1056A000FC780008C2F10802920070B5C2F1200631
:1056B0004368046803FA06F52C43D340046040F8BD
:1056C000043F8842F4D370BD30B50368013311F84C
:1056D000014B14B90360012030BD13F8012BA2F176
:1056E0004105192D98BF2032A242F0D00020F3E7E7
:1056F0002DE9F04F00250B6882465E1102EB86060D
:1057000013F01F0318BF0436371F9046B9463C46B6
:10571000AB4687B00168019346F8045C02954A786D
:105720004B1C039342B3104605910492FFF769FDA9
:1057300000284FD1049A0599202A18D8029B9B452E
:1057400013DD4C4506D2072D04DC2A464946204687
:10575000FFF7A8FF444550D90023A4F1040944F8F9
:10576000043C1D464C46CDF808B00399D7E7292ADA
:1057700056D10231CAF80010BBF1000F50D04C4591
:1057800006D2072D04DC2A4649462046FFF78AFF49
:10579000444534D92346A8F1040253F8041B9F4220
:1057A00042F8041FF9D23B1B23F0030304330134F6
:1057B000033EB44288BF04230022434443F8042B31
:1057C0009F42FBD23B681BB9474527D101233B6071
:1057D000052026E00135082D0BF1010B06DD4445BF
:1057E000C3D90023012544F8043C043C226800F09E
:1057F0000F0040EA02122260B7E70825B5E7019BD7
:10580000002BDFD04FF0FF32C3F1200322FA03F365
:1058100056F8042C1A4046F8042CD3E7043FD1E78D
:10582000042007B0BDE8F08F0048704764090020ED
:10583000024B0146186800F043BD00BF0C08002071
:1058400082B001B901A942B14BB113780B60127853
:10585000101E18BF012002B070471046FBE76FF022
:105860000100F8E7034610B5C9B202449342184656
:1058700001D1002003E0047801338C42F6D110BD41
:105880000A44914200F1FF3300D1704710B511F87E
:10589000014B914203F8014FF9D110BD70B5466A32
:1058A00004460D4676B91020FFF7C2FF024660623B
:1058B00020B96621174B184800F0EEFEC0E90166DA
:1058C0000660C660666AF36883B1636ADB6853F892
:1058D0002500B8B9012101FA05F6721D2046920093
:1058E00000F094FC60B1C0E901560EE021220421D1
:1058F000204600F08BFC636AF060DB68002BE4D18B
:10590000002070BD026843F825200023C0E903335E
:10591000F7E700BF867800088C79000870B5466A02
:1059200005460C4676B91020FFF782FF02466862F2
:1059300020B98A21084B094800F0AEFEC0E9016693
:105940000660C6603CB16B6A6268DB6853F822107F
:10595000216043F8224070BD867800088C790008E9
:105960002DE9F04198460C4600230E69074601F1E7
:10597000140005680133A9B202FB01812D0C4FEA26
:10598000114C02FB05C589B201EB05419E424FEA6D
:10599000154840F8041BECDCB8F1000F22D0A368D6
:1059A000B34219DC616838460131FFF777FF0546DD
:1059B00028B90246B5210D4B0D4800F06DFE226955
:1059C00004F10C01023292000C30FFF759FF21461E
:1059D0003846FFF7A3FF2C4604EB86030136C3F8D5
:1059E000148026612046BDE8F08100BFFC780008E5
:1059F0008C7900082DE9F843154609221F46083323
:105A00000C4693FBF2F30646012200219A4209DB81
:105A10003046FFF743FF40B90246CE21184B1948E4
:105A200000F03AFE52000131F0E7089B092D436176
:105A30004FF00103036116DD04F10909C8462C4447
:105A400018F8013B01460A223046303BFFF788FF39
:105A5000A045F5D1A5F108044C442D1B6319BB42A8
:105A600004DBBDE8F88309250A34F6E714F8013BA6
:105A700001460A223046303BFFF772FFEEE700BFD7
:105A8000FC7800088C790008020C12040346CAB99D
:105A90000304102013F07F4F04BF1B02083013F0E3
:105AA000704F04BF1B01043013F0404F04BF9B0034
:105AB0000230002B05DB13F0804F00F1010008BF1E
:105AC000202070470020E5E70368024613F0070036
:105AD0000BD0D90722D4980749BF5B089B08012047
